:060000000A128A1110280B
:10000800FE00030EF8000408F9000A08FA007F0849
:10001800FB000A128A111F280A128A1113280A12D1
:100028008A1132230A128A11A600FC01FD018301FC
:100038000A128A110C2B0B1D22282328372803109B
:1000480083120313051C031403182B282F2883126B
:100058000313051432288312031305100A128A1198
:100068002C230A128A11831203130C1F3C283D28E3
:1000780051280A128A111B230A128A117008F600E5
:100088007108F7000430FF00770DF70CF60CFF0B32
:10009800482876088312031388008C1C5428552896
:1000A80088280130F6007608FD07260803195D2820
:1000B8005E28792839307D06031D63286428662860
:1000C800A601FD010130F6007608FC077C08F60061
:1000D800F7017608F0007708F100F201F20A0A1237
:1000E8008A1168210A128A11852839307D06031D74
:1000F8007E287F288228A601A60AFD010130FC027D
:100108006A28831203138C107B08FF007A088A0080
:1001180079088400780E8300FE0E7E0E090083168F
:1001280003178801831603138501831203138501BE
:10013800831603138701831203138701831603139E
:10014800880183120313880104300A128A116A2273
:100158000A128A110A128A1126230A128A110030F9
:1001680083120313A0000130A1000A128A1104218E
:100178000A128A1101300A128A11B5220A128A114A
:10018800043083120313A0000030A100A201A20AC8
:100198000A128A11C4210A128A110B178B178B169F
:1001A80083120313A001A10101300A128A111E2231
:1001B8000A128A11013083120313A0000030A10033
:1001C800A201A20A0A128A11C4210A128A118312F0
:1001D80003138C100330920412158C1CF428F52894
:1001E800F1288C10120887393838920083160313C7
:1001F8008C14831203130C13831603130C170800B3
:1002080083160313811281113D29F83083160313D5
:1002180081056329831603130108F8390138810021
:100228006329831603130108F8390238810063290A
:10023800831603130108F8390338810063298316EC
:1002480003130108F839043881006329831603135E
:100258000108F8390538810063298316031301085A
:10026800F83906388100632907308316031381049F
:100278006329831203132108003A03194729013A15
:1002880003195E2963292008023A03190929063A45
:1002980003190E290C3A03191529183A03191C29B0
:1002A800303A03192329603A03192A29C03A031955
:1002B800312963292008003A0319382963290C30A9
:1002C800831281000B1108000430710200300319F9
:1002D8007002031870297129C329B3297108F40021
:1002E8007008F3000310F40CF30C0310F40CF30C77
:1002F800730883120313950070080339F300F30E93
:1003080017087306CF3973069700C3297108F400DC
:100318007008F3000310F40CF30C0310F40CF30C46
:100328007308831203139B0070080139F300F30E5E
:100338001D087306EF3973069D007108F4007008F4
:10034800F3000310F40CF30C73080139F500F50EF3
:10035800F50D1D087506DF3975069D00C32972085D
:10036800F300F4017408003A0319BB29C329730880
:10037800013A03197229033A03198A29C329080083
:1003880004308312031321020030031920020318DA
:10039800CE29CF291D2A0D2A2108A4002008A30050
:1003A8000310A40CA30C0310A40CA30C23089500A1
:1003B80020080339A300A30E17082306CF39230604
:1003C80097001D2A2108A4002008A3000310A40CEC
:1003D800A30C0310A40CA30C23089B0020080139CC
:1003E800A300A30E1D082306EF3923069D0021084C
:1003F800A4002008A3000310A40CA30C23080139AF
:10040800A500A50EA50D1D082506DF3925069D00AA
:100418001D2A2208A300A4012408003A0319152A5A
:100428001D2A2308013A0319D029033A0319E6299A
:100438001D2A080083120313A400322A3F309F05A7
:10044800482A1F083F3940389F00482A1F083F396B
:1004580080389F00482AC0309F04482A2408A200F8
:10046800A3012308003A03193A2A482A2208003A25
:100478000319222A013A0319252A033A03192A2AB9
:10048800013A03192F2A482A200C83160313031C48
:100498001F1203181F1683120313210C831603134C
:1004A800031C9F1203189F16C330831203139F0562
:1004B800831603139F13831203131F140C30831224
:1004C8000313A200A20B662A00000800831203137C
:1004D800A200831603130F14992A831603130F0817
:1004E8008F3940388F00B42A831603130F088F39C9
:1004F80050388F00B42A831603130F088F396038D9
:100508008F00B42A7030831603138F04B42A83161D
:1005180003130F088F3930388F00B42A831603135A
:100528000F088F3960388F00B42A8312031322080A
:10053800A000A1012108003A0319A32A922A200841
:10054800003A0319712A013A0319782A033A031960
:100558007F2A013A0319862A073A03198B2A922A15
:10056800080083120313A2008316031307158714C8
:100578000F3092000330831203139204D72A970195
:100588003F3097051708F0390C3897008316031386
:100598000711E72A9D011D08F0390C389D008316C4
:1005A80003138710E72A2208A000A1012108003AB6
:1005B8000319DF2AE72A2008013A0319C32A033A54
:1005C8000319CE2AE72A080083120313A1000E306C
:1005D80021020318F02AF12AFB2A2108A000A00D05
:1005E800A00D1F082006C33920069F00FD2AC3302E
:1005F8009F050C3083120313A000A00B012B0000F1
:10060800831203139F149F180A2B0B2B072B080028
:100618000A128A1193200A128A110C300A128A11BE
:10062800E8220A128A11112B0A128A111028831241
:1006380003130C131E08F200F3017208F00073088C
:10064800F10008000C308312031381000B1108001D
:0E0658000C308312031381000B1108000134D3
:08400000FF3FFF3FFF3FFF3FC0
:04400E00D420FF3F7C
:00000001FF
